:020000040800F2
:1000000080110020490A0008232F0008350A000843
:10001000350A0008350A0008350A0008000000000B
:10002000000000000000000000000000090B0008B4
:10003000350A000800000000A90A0008291A000873
:10004000910C0008910C0008910C0008910C00081C
:10005000910C0008910C0008910C0008910C00080C
:10006000910C0008910C0008910C0008910C0008FC
:10007000910C0008910C0008910C0008910C0008EC
:10008000910C0008910C0008910C0008910C0008DC
:10009000910C0008910C0008910C0008910C0008CC
:1000A000910C0008910C0008910C0008910C0008BC
:1000B000910C0008910C0008910C0008910C0008AC
:1000C000910C0008910C0008910C0008910C00089C
:1000D000910C0008910C0008910C0008910C00088C
:1000E000910C0008910C0008910C0008910C00087C
:1000F000910C0008910C0008910C0008910C00086C
:10010000910C0008910C0008910C0008910C00085B
:10011000910C0008910C0008910C0008910C00084B
:10012000910C0008910C0008910C0008910C00083B
:10013000910C0008910C0008910C0008910C00082B
:10014000910C0008910C0008910C0008910C00081B
:10015000910C0008910C0008910C0008910C00080B
:10016000910C0008910C0008910C0008910C0008FB
:10017000910C0008910C0008910C0008910C0008EB
:10018000910C0008910C0008910C0008910C0008DB
:10019000910C0008910C0008910C0008910C0008CB
:1001A000910C0008910C0008910C0008910C0008BB
:1001B000910C0008910C0008910C0008910C0008AB
:1001C000910C0008910C0008910C0008910C00089B
:0801D000910C0008910C0008DD
:1001D80053B94AB9002908BF00281CBF4FF0FF31A6
:1001E8004FF0FF3000F00CB8ADF1080C6DE904CE0B
:1001F80000F008F8DDF804E0DDE9022304B07047F8
:10020800704700BF2DE9F04786468C460846089E91
:10021800154674461946002B40F0C2808542B2FA52
:1002280082F245D94AB1C2F1200300FA02FC2EFA43
:1002380003F3954043EA0C0C94404FEA154EA8B2DC
:10024800BCFBFEF8230C0EFB18CC08FB00F943EAB4
:100258000C43994528D9EB1808F1FF3704D2994582
:1002680002D9A8F102072B44A3EB0903A4B2B3FBFC
:10027800FEFC0EFB1C330CFB00F044EA0344A042D6
:1002880014D92C190CF1FF3304D2A04202D9ACF1D5
:1002980002032C44241A43EA07401EB1D440002329
:1002A80034607360BDE8F0874746DDE76346F1E7F1
:1002B80092BB431B01214FEA154EAFB2B3FBFEFCC4
:1002C800200C0EFB1C330CFB07F840EA034398454F
:1002D80062D9EB180CF1FF3004D2984502D9ACF181
:1002E80002002B44A3EB0803A4B2B3FBFEFC0EFBF5
:1002F8001C330CFB07F744EA0344A7424ED92C19D8
:100308000CF1FF3304D2A74202D9ACF102032C440A
:10031800E41B43EA0040C0E7C2F1200320FA03F1DE
:10032800954090402EFA03F303434FEA154EAFB2BF
:10033800B1FBFEFC0EFB1C10190C0CFB07F841EA84
:100348000041884504FA02F422D969180CF1FF30FB
:1003580004D2884502D9ACF102002944A1EB080176
:100368009BB2B1FBFEFC0EFB1C110CFB07F743EA2A
:1003780001439F420ED9EB180CF1FF3104D29F4282
:1003880002D9ACF102012B44DB1B41EA004192E7A0
:100398006046E3E76146F7E76046A3E76346B7E7E9
:1003A800834206D916B9002108467BE7C6E900E072
:1003B800F9E7B3FA83F78FB9834201D3724508D8B6
:1003C800BEEB020460EB030301209C461EB900212A
:1003D80068E73846FAE7C6E9004CF8E7C7F1200CA9
:1003E800BB4022FA0CF41C432EFA0CF120FA0CF351
:1003F800B84001434FEA14490EFA07F5B3FBF9F880
:100408001FFA84FE09FB18300B0C08FB0EFA43EAAE
:1004180000439A4502FA07F240D9E31808F1FF3081
:1004280004D29A4502D9A8F102002344A3EB0A0397
:1004380089B2B3FBF9F809FB183308FB0EFE41EA51
:1004480003418E452CD9611808F1FF3304D28E453B
:1004580002D9A8F10203214443EA0040A0FB029814
:10046800A1EB0E014145CE46434602D306D14D4588
:1004780004D2B9EB020E68EB04030138002EA6D0B3
:10048800B5EB0E0261EB030101FA0CFC22FA07F34B
:100498004CEA0303F940C6E9003198E74046C5E74E
:1004A8004346D9E708B501F085FBBDE80840014699
:1004B800014802F01ABD00BFF0400008F7B54B4DE7
:1004C800284603F00AF930B92968494802F00DFDB9
:1004D800002003B0F0BD4FF48031464802F085FC9F
:1004E800014628B12A6844480D2302F0FEFCEFE7D4
:1004F800AC682B69A6699EB11B6813F4005F4FF0C6
:100508000D0114BF4FF000734FF080634FF0A072DD
:100518002846B047014630B12A6838480D23E4E739
:100528006FF05701F8E73649364B4B604FF40053EC
:100538008B60E36913B1012228469847324C33484F
:1005480029680D2202F0D1FC206850B103F0C5F8EB
:100558002368064628BB01461A682D4802F0C5FCE8
:1005680026602C4802F0C1FC2368002BB0D02E690D
:100578001E4FAB6801A95B6838469847031E29D10E
:100588003268019B5340C3F340332279206801212C
:10059800914002691268114222D01BB383681B691B
:1005A80022E0002BDDD04FF40031204602F01DFC84
:1005B8002379014638B122681748126802F095FC81
:1005C80000232360CDE72168144809681A4602F021
:1005D8008CFCC6E7D9DA00210A2003F0FCF8C8E74A
:1005E800002BDBD08368DB689847F4E7DC3A000827
:1005F80006410008203F00082C410008554100082A
:1006080028020020AD040008000000208B410008EB
:10061800A741000827420008DA4100080E420008F6
:10062800014B1B68184700BF08000020014B1860E9
:10063800704700BF0800002030B585B004460D465D
:1006480010220021684603F03FF902238DF802309A
:100658002A46044B01932146684602F069F905B021
:1006680030BD00BF2906000880B505460E4617466E
:10067800984601F0DDFE034603F092F9DFF8189082
:10068800044649F80030424630463946A84754F8EF
:10069800090000F0EFF900BF08000000034A5368A2
:1006A80023F0020353600020704700BF002004E0DD
:1006B800134B1A6842F400721A601A6842F4806296
:1006C8001A601A6842F480721A600E4B0E4A1A6059
:1006D8000E4A536843F0010353600D4B9A6D42F084
:1006E80080529A659B6D0B4A82B003F08053019348
:1006F800019B936843F48043936002B0704700BF46
:10070800002002403C0000200024F400002004E007
:100718000010024000700040014B03600020704749
:10072800283F000830BFFFF7FDBF00BF2DE9F041AB
:100738000B4EDFF8308006EB0807CC1B0546324627
:100748000949204603F0B2F8A01942460021083CA6
:1007580003F0BAF82C6707F10800BDE8F08100BF84
:100768000000000004000000203F0008054B5A6903
:100778009B689A421FBF044A536843F080535360F2
:10078800704700BF6803002000ED00E070B5264BFD
:1007980015469A6A12F0100F9A6A14BF1124102491
:1007A80012F0080F9A6A18BF1224920706460AD553
:1007B800586B9A6A140634D519B19A6A22F08002E5
:1007C8009A62132401E06FF01500174B9A6A12F031
:1007D800010F9A6A18BF142412F0200F9A6A18BFE2
:1007E8001524D20602D49B6A9B070AD50E4B5B6878
:1007F800190506D5314600F001FA10B180F30988D1
:100808000224094B9A6A920642BF5A6A22F400529D
:100818005A629A6A42F0FF029A6200232B702046BD
:1008280070BD6FF01500CCE700ED00E0134B9A6A3D
:1008380012F0007F9A6A14BF1E201D2012F0807FDC
:100848009A6A18BF1F2012F4002F9A6A18BF212035
:1008580012F4802F9A6A18BF222012F4003F9A6A75
:1008680018BF232012F4803F9A6A6FEA02426FEAA7
:1008780012429A6218BF2420704700BF00ED00E0C2
:1008880010B5194B0246986A9C6A10F4805F14BF31
:100898001720162014F4006F9C6A18BF1820A405AE
:1008A80009D5986B986A000404D51AB19A6A22F49B
:1008B80000429A6219200C4B9A6A12F4806F9A6A65
:1008C80018BF1A20D2050CD49B6A13F4005F18BF16
:1008D8001C20054A936A43F47F43936200230B70FC
:1008E80010BD1B20F5E700BF00ED00E0F0B5484B58
:1008F8005B688BB00446C3F30803002585F31188B1
:10090800BFF36F8F02F07F40B0F17F4F11D102F03B
:100918000C0008280DD010074CBF0C4601250022FA
:10092800033B8DF80720032B05D8DFE803F0246389
:1009380067602C46F3E700239DF80720CAB902AE8A
:1009480004F1200720686168324603C20834BC42BB
:100958001646F7D1099A002D54D0C2F3080121B9DF
:100968006FEA52226FEA4222099202A9184602F05F
:10097800CAFA0BB0F0BD264BDA6A9107DBD4DA6A03
:10098800002AD8DBDA6A5200D5D55A69A16942F43F
:1009980080725A61BFF34F8FBFF36F8F5A6931F876
:1009A800021C22F480725A61BFF34F8FBFF36F8F1E
:1009B8004DF6027291420AD09A6AD2B24AB10DF14A
:1009C800070201212046FFF7E1FE0346B4E723684A
:1009D800B2E79A6A12F47F4F05D00DF107010120A2
:1009E800FFF74EFFF1E79B6AB3F5803FA3D3FFF70C
:1009F8001DFFEAE70DF107020021E3E70DF107010A
:100A08000020EDE722F4FF7222F00102ACE700BFFC
:100A180000ED00E0044B5A6942F010025A615A692D
:100A280022F008025A61704700ED00E0EFF30880F9
:100A3800EFF3098101B57246FFF758FF01BD00BF0A
:100A48000A4880F30888102080F3118808484FF47A
:100A58000461401880F30988EFF3148002210843E9
:100A680080F31488BFF36F8F00F090F88011002096
:100A7800C0030020084B9B6883420BD1EFF305832A
:100A880043B1064B5A6842F080525A605A6A22F4BF
:100A980000425A6201F0D2BC6803002000ED00E079
:100AA80014498A684FF030001044EFF3098C80E84D
:100AB800F01F102080F31288BFF36F8F0E4F4FF096
:100AC80000664A698A603E60106F0C4C2060506F67
:100AD8000023536780F3118804B5104600F0F2F83C
:100AE800BDE8044002F1300090E8F01F8CF309885B
:100AF800704700006803002004ED00E03402002085
:100B08001EF0040F0CBFEFF30880EFF30980816932
:100B180011F8021C0229FFD001B5724602F0F9F95A
:100B280001BD00BF40B2002807DB044A4109012388
:100B380000F01F00834042F82130704700E100E0D8
:100B480040B20028A8BF00F1604001F10101B8BF20
:100B5800064B4FEA0111ACBF00F5614000F00F00F1
:100B6800C9B2B4BF195480F80013704714ED00E0FF
:100B7800044B054A23F07F039360BFF34F8FBFF305
:100B88006F8F70470000000800ED00E008B5FFF720
:100B9800EFFF0B4AD2F8883023F47003C2F888308C
:100BA800EFF3148323F0040383F31488BFF36F8FE8
:100BB80001F054F901F064FD00F05AF801F092F9DF
:100BC80000ED00E042F8203C009B42F81C3C0A493A
:100BD800019B42F8183C029B42F8143C21F00101A9
:100BE8004FF0807342F8043C42F8081C0023203A76
:100BF80002654367704700BF71060008094A03464B
:100C0800906870B113F1160F006E05D0A0F1400284
:100C18009A4205D8834203D2814228BF00207047F8
:100C2800002070476803002008B51546094A0A4B9A
:100C38009060026F1A600E4600F044F82C4686F366
:100C480009880020054B98472046002100220023F0
:100C5800034C20476803002034020020392F000885
:100C680071060008014B10221A61704700ED00E080
:100C7800044800231021C2180133662B82F80013A0
:100C8800F9D1704700E100E008B5EFF30583064AA3
:100C9800103B02EBC30152F8330049688847BDE8AE
:100CA8000840FFF763BD00BF8C3B0008024B034AB6
:100CB8000348012100F076B800000220000000205F
:100CC800283F0008026E054B403A1A60044A40214A
:100CD800C3E901121846012100F06EB8380200205D
:100CE80000000B15084AC2F898000B6823F01F0390
:100CF800034343F01003C2F89C308B6843F00103B0
:100D0800C2F8A030704700BF00ED00E02DE9F043C5
:100D1800DFF8608085B00E461F4604464FF0000994
:100D2800B14523DA6068D8B13FB1411E08421BD1F2
:100D38001F2819D92368194216D12368019302F094
:100D48000BF9A36803430393D8F89050C5F307251C
:100D5800D0B2013DA84207D801A9FFF7C3FF421C42
:100D680009F101090C34DBE76FF01502104605B0F4
:100D7800BDE8F08300ED00E0044B0522C3F89420A1
:100D8800BFF34F8FBFF36F8F704700BF00ED00E0D8
:100D9800BFF35F8F024B0022C3F89420704700BF57
:100DA80000ED00E010B5034C01232278FFF7AEFFF9
:100DB800207010BD9403002008B50B4A0023127858
:100DC800FFF7A4FF10F1160F07D0084A0021D2F848
:100DD8009030C3F30723984200DB08BDC2F898009F
:100DE800C2F8A0100130F2E79403002000ED00E003
:100DF8002DE9F043534B544CD3F890302568C3F396
:100E080007239D4285B000F29A80FFF7C1FF0020BA
:100E18000C2685421AD14D4C4D4F25706846FFF778
:100E28007BFCDFF82081DFF82C9106460025AE42D6
:100E380013D1237843490020D1F89020C2F3072228
:100E4800934276DBFFF798FF002042E0616806FBDB
:100E58000011FFF747FF0130DBE7009800EB0511B1
:100E68004FEA051CCB683B40B3F5000F48D00AD8C1
:100E7800B3F5001F30D0B3F5800F36D0B3F5801F1F
:100E880010D00135D3E7B3F1807F42D0B3F1007FB2
:100E9800F7D150F80C3088684A6802F05DF840F4E1
:100EA800802009E050F80C3088684A6802F054F84D
:100EB80040F0885040F43020CDE901230390D8F861
:100EC80090302078C3F30723013B98422AD96FF06A
:100ED800150005B0BDE8F08350F80C3088684A6802
:100EE80002F03AF840EA0900E6E750F80C30886862
:100EF8004A6802F031F840F0C06040F40030DBE7A7
:100F080050F80C3088684A6802F026F840F0827081
:100F1800D2E750F80C3088684A6802F01DF840F0B3
:100F28008870C9E701A9FFF7DDFE23780133237034
:100F3800A7E7C1F89830C1F8A00001337CE74FF06B
:100F4800FF30C6E700ED00E0343F000894030020BE
:100F58000000F0FF0000081108B5024B1B68984715
:100F6800002008BD44020020034B044A186093780F
:100F780043F0020393707047440200200C000020E5
:100F880008B50649064821F00701C1F1005202F5EB
:100F9800003201F06BFF002008BD00BFC711002020
:100FA800480200202DE9F0410F4E104F054600245D
:100FB8004FF001082A781319DBB208FA03F07369B5
:100FC80030EA030309D152FA84F3706157F83320E9
:100FD8001AB107EBC303596890476A780134E3B242
:100FE8009A42E7D2BDE8F081000401405402002093
:100FF800044B184400230133994200F8012BFADC12
:10100800704700BF4C00002007B5062201210020D0
:10101800FFF7EEFF002211460620FFF791FD0121A0
:1010280008460722FFF7E4FF002211460720FFF7D2
:1010380087FD082201210220FFF7DAFF002211466E
:101048000820FFF77DFD092201210320FFF7D0FFCB
:10105800002211460920FFF773FD0A22012104200E
:10106800FFF7C6FF002211460A20FFF769FD052198
:1010780008461722FFF7BCFF002211461720FFF78A
:101088005FFD282206210A20FFF7B2FF0022114641
:101098002820FFF755FD012307486022CDE90023EA
:1010A80083681B6823B16946984703B05DF804FB61
:1010B8006FF05700F9E700BFFC390008034660B13C
:1010C800B0FA80F2C2F11F02D2B205498856054A29
:1010D80011680B431360FFF725BDFF22F5E700BF3A
:1010E8004C00002000040140024A136823EA000370
:1010F8001360704700040140032921D8DFE801F09C
:10110800020C10190F4B9A6822EA00029A60DA68FA
:1011180022EA0002DA6070470A4B9A680243F5E750
:10112800084BDA680243DA609A6822EA00029A6099
:101138007047044B9A6802439A60DA681043D86093
:10114800704700BF0004014030B5B0B1B0FA80F379
:10115800C3F11F03DBB20B4850F833408C4204D173
:1011680000EBC3056D68954205D044B940F83310CB
:1011780000EBC3004260002030BDFF23EBE76FF0B7
:101188000F00F9E75402002060B1B0FA80F3C3F110
:101198001F03DBB2044A002142F8331002EBC302FA
:1011A80051607047FF23F5E75402002000F0030266
:1011B800043292000F23934043EA900000F00303A7
:1011C8000233074A52F82320030C93FAA3F3B3FA25
:1011D80083F302EA104003F01F03D840704700BFB2
:1011E8000000014038B508882F4B1446C0F30B02A5
:1011F800082A1B680D4602D00B2A22D812B96FF0B4
:1012080085002EE0501E0A28F9D801A252F820F0D5
:101218005F1200089D120008451200089D12000880
:1012280099120008951200089D120008071200087C
:101238006D12000883120008831200084FF4FA4365
:1012480009E002F6B870C0F30B001828D7D8174A7F
:10125800C240D207D3D523602A68B2F5805F1BD27B
:10126800002038BD00F0D2F855220623B0FBF3F376
:1012780053430722B3FBF2F3EDE700F0C7F855221A
:101288000623B0FBF3F353435B08E4E7084BE2E7BC
:10129800084BE0E70023DEE7C2F313320132B3FB69
:1012A800F2F32360DCE700BF3C00002011011101CC
:1012B80000366E01006CDC02F8B5504F504C00F05F
:1012C800C3F8384601F00AFF00F088FCA3684D4ACD
:1012D800C3F303131578D35C05F01F0503F01F0350
:1012E80020FA03F647FA05F5AE4202D2284600F086
:1012F800ABFC236823F480232360236843F4803302
:10130800236023689903FCD5D4F8943043F0010393
:10131800C4F89430D4F894309A07FBD5D4F89830B0
:1013280043F00103C4F89830D4F898309B07FBD5F4
:10133800A36803F00C030C2B18D12368580506D4B6
:10134800236843F48073236023685905FCD5A36898
:1013580023F0030343F00103A360A36803F00C0325
:10136800042BFAD1A36823F0F003A360236823F0C9
:101378008073236023689A01FCD4E36823F06053E8
:1013880023F4003343F06053E360E36843F48033AD
:10139800E360E36823F4C003E360E36843F4801385
:1013A800E36000F037F8236843F080732360236814
:1013B8009B01FCD5A36823F0F00343F08003A360EE
:1013C800A36843F00303A360A36803F00C030C2B8A
:1013D800FAD1A368AE4223F0F003A36002D32846F3
:1013E80000F032FC084B1F60A36823F4E063A3609D
:1013F800A36823F46053A3600020F8BD80FE210A8F
:1014080000100240144300083C00002000487047C8
:1014180000366E010A4AD2F8803023F48073C2F88D
:10142800803002F5D032074BD1680B4043F4AA4311
:1014380043F05303D360D36843F08073D36070479D
:10144800007000400C80FFF9064B9A6D42F0805204
:101458009A659B6D82B003F080530193019B02B0A3
:10146800704700BF0010024008B5074802F035F980
:1014780038B10648FFF778FD0448FFF7D7F8002091
:1014880008BD6FF01200FBE73C3B00089914000808
:101498000A2838B5074D044604D1AB680D215B68AE
:1014A80028469847AB6803485B68E1B298472046EE
:1014B80038BD00BF3C3B00082DE9F843D0F8048054
:1014C800D0F81090D8F8080017460D461E4601F0CF
:1014D80058FDB7F5001F044616D12846D8F808402D
:1014E800FFF764FE84420CD1294601F04AFD044608
:1014F800FFF7FAFD2046FFF747FE00212046FFF7D9
:10150800FBFD0020BDE8F883B7F5800F20D0B6F1C9
:10151800806F19D0B6F1C06F18D0B6F1007F1AD11C
:10152800022610494A462046FFF70EFEB0B9D8F801
:101538000810284601F028FD20463146FFF7DCFD5B
:101548002046FFF7BBFDDCE70126EAE70326E8E7CC
:101558006FF08500D6E76FF01500D3E76FF00F0046
:10156800D0E700BF5333000838B503690446586014
:101578000A4D284602F0B1F860B1AB6861681B6893
:101588000C3123B12846984700EAE07038BD6FF067
:101598005700F9E76FF01200F8E700BFFC390008C0
:1015A8002DE9F0471E4F044600EBC1060025B44262
:1015B80001D1002014E02068C30600F01F0911D4EF
:1015C800656845F02005C0F3481AC0F34420102888
:1015D80023D857F82080B8F1000F0DD16FF0120012
:1015E800BDE8F087B9F1100F04D0B9F1110FEAD1B5
:1015F8006568E8E73025E6E7404602F06EF800281F
:10160800ECD04B462A460AF00F01404601F0B3FEE3
:10161800002804F10804CADAE2E76FF01500DFE7F2
:10162800E03F0008012912D0022907D089B90068D3
:10163800094BC01A18BF0120000370470068064B09
:10164800984214BF4FF440504FF4005070470020A8
:1016580070474FF4005070470080004070B51D4639
:10166800094B002633F812203346FEF7B1FD090274
:1016780041EA10616C08000220182A46334641F1FD
:101688000001FEF7A5FD70BDD8400008F7B5026956
:10169800436810681D680C46D9688368DB68B3B175
:1016A80001AA9847002812DB214B9D4232D1019FA5
:1016B800204E00252346AAB238460021FFF7CEFF68
:1016C800A0F54070B04204D901350C2DF2D103B019
:1016D800F0BD174EF36A23F00F032B43F362002C7F
:1016E800F5D0154B33F81520002319463846FEF778
:1016F8006FFD090241EA106163080002C018224622
:101708004FF0000341F10001FEF762FDC0F3130042
:10171800F060DCE72B6823F400432B60019B002C6E
:10172800D5D003EB5403B3FBF4F39BB2EB60CEE7E5
:1017380000800040FFFC0F00D84000082DE9F84366
:1017480006460A794068336904685F68012A0D46CD
:1017580058D0931ED3F1000848EB03084FEA8828B5
:101768006979FFF75FFF95F80690B9F1020F034614
:101778004BD0B9F1040F4CD0002A54D0033A012AB7
:1017880049D94FF48050B3F5805F4ED0B3F5405F30
:101798004DD0002B0CBF0123032399423BD1414676
:1017A80001F049FE814536D1EB79C3B1012B40D117
:1017B800214B9C4213D0A3F574439C420FD003F5F0
:1017C80080639C420BD003F580639C4207D003F5ED
:1017D80080639C4203D003F540539C421BD123688D
:1017E80023F0010323602946304601F0DAFE23681E
:1017F80043F00103236095E8030087E80300002015
:10180800BDE8F8834FF4C068AAE73AB94FF08050B2
:10181800B9E7002AB5D06FF08500F1E7033A012A4D
:10182800F9D90020AFE71046ADE70023B5E702235A
:10183800B3E7032BBCD0EEE700380140F7B50569E4
:10184800446806465348286001F047FF002800F026
:1018580097802868E16883681B68002B00F09480F3
:1018680098470028C0F28E80206A01AA002101F062
:1018780097FD0028C0F28680019B0022197918681C
:10188800FFF78EFE00287DDB756833692C685F687A
:10189800236823F001032360686801F01EFF002815
:1018A8006ED0D5E901018368DB6803B1984754E835
:1018B800003F43F00C0344E80032002AF7D13946D0
:1018C800304601F06EFE2B7D1BB1A36843F0080380
:1018D800A3606B7D1BB1636843F400436360AB7D19
:1018E8001BB1636843F480336360EB7D1BB16368AD
:1018F80043F4003363602B7E83B3274B9C4213D0A1
:10190800A3F574439C420FD003F580639C420BD02F
:1019180003F580639C4207D003F580639C4203D0A3
:1019280003F540539C4232D173681A68936843F4B4
:101938008043936023686A7E23F0787343EA4253B6
:1019480023602368AA7E23F4F81343EA0243236042
:10195800EB7E1BB1A36843F40043A3602B7F1BB14C
:10196800236843F000532360236843F00103236096
:10197800E3699A02FCD5E3695B02FCD5002001E02B
:101988006FF0120003B0F0BD6FF05700FAE76FF088
:101998001500F7E7FC3900080038014010B54FF092
:1019A800E0230F499C691A6908689B690D4902F48C
:1019B800803234B993B903464AB90A681044C01A48
:1019C80010BD002B08BF03460AB9A342F5D90A681F
:1019D80002440A604FF0E0221269EEE70446F3E79A
:1019E80064030020600300200A4B102283F82320A0
:1019F800094B44F268221A60084B002018604FF027
:101A0800E02344F267225A6198611A6942F007029A
:101A18001A61704700ED00E06403002060030020B5
:101A2800684620F007018D4619B5FFF7B7FF114B3F
:101A38001149D3E900420868001942F10002C3E9DC
:101A480000020E4A00230B60D2E9004144F26823E9
:101A5800001BB0FBF3F043431B1941F10001C2E93D
:101A6800003100F0E7FEFEF781FEBDE8194085462B
:101A7800704700BF8000002060030020780000202D
:101A88002DE9F041DFF8DC8099B1421C0BD14FF011
:101A9800E022136923F0010313614FF07F43C8F874
:101AA8000030BDE8F081D8F80060012807DC002785
:101AB8000BE0431CD8F80060F7D140F2D93040F26F
:101AC800DA339842A8BF1846471EEFF31185102352
:101AD80083F31288BFF36F8FFFF760FF224C4FF03C
:101AE800E0239969D4E90023801843F10003C4E98D
:101AF80000031E4B00221A601D4B1A68831A2ED44D
:101B080044F2682C0CFB073303F584436733B3FBBB
:101B1800FCF7131A0CFB073340F22642934238BFF6
:101B28001346144A934228BF13464FF0E022C8F8E0
:101B38000030013B90695361002393618142A1EB1E
:101B48000003D4E9001238BF9B195B1842F1000268
:101B5800C4E9003285F31188BFF36F8FA1E740F223
:101B68002643E2E764030020800000206003002091
:101B7800780000202882FF0038B5EFF31185102384
:101B880083F31288BFF36F8F084B1C68084B1B68E0
:101B9800E41AFFF703FF85F31188BFF36F8F44F250
:101BA80068232044B0FBF3F038BD00BF800000205C
:101BB8007800002038B5EFF31185102383F31288DD
:101BC800BFF36F8F044B1C68FFF7E8FE85F311889D
:101BD800BFF36F8F204438BD80000020174B9A68F0
:101BE80002F00C02042A23D09A6802F00C02082A98
:101BF80020D09A6802F00C020C2A1DD1D968DA6844
:101C0800D868DB6801F00301C3F341630329C2F319
:101C18000312C0F3062003F101030CBF0849094968
:101C28005B000132B1FBF2F25043B0FBF3F07047B6
:101C3800044870470248704700207047001002406F
:101C480000366E010024F400294A1368D2F8802077
:101C580012F4807F03F4C063264A00F1FF3124D1D7
:101C6800914242D8B3F5007F2FD1234B984234D804
:101C7800224B984233D8224B984234D8214B984271
:101C880094BF00200120204A136823F00F03034368
:101C98001360136803F00F0398421CBF136803F026
:101CA8000F03C01A18BF0120704791421DD8B3F521
:101CB800007F0AD1154B98420FD8154B98420ED881
:101CC800144B98420FD8144BD9E7B3F5806F08D15D
:101CD800124B984207D8124BD1E70420D3E70320D0
:101CE800D1E70020CFE70220CDE70120704700BFF1
:101CF800007000407FFE210A00321B088065140630
:101D080000990D0480CC060200200240000E27072F
:101D1800804A5D050087930380C3C90100366E01C0
:101D2800001BB70038B5EFF31185102383F3128831
:101D3800BFF36F8F064B9C6801F0E2FC85F31188B6
:101D4800BFF36F8F2046BDE83840FEF793BE00BF53
:101D5800680300200E4B70B553F820400D4E01303B
:101D680053F82050A54200D870BD54F8040B002841
:101D7800F8D0B04205D3084B984202D2036898477E
:101D8800F0E7037FDB07EDD401F0BDFCEAE700BF15
:101D9800C04000087C3B00088C3B000870B52A4B0B
:101DA8002A4C2B4D012286B003201A70FFF7D2FF70
:101DB80000F0B8FD0420FFF7CDFF2646AE4204F13F
:101DC800300410D300F040FA204C224EAC4226D307
:101DD80000F04EFAFEF772FB1F4A137B23F0010353
:101DE800137306B070BD54F80C3C059354F8103CBE
:101DF800049354F8143C039354F8183C029354F891
:101E08001C3C019354F8203C009354E90A2354E9FC
:101E18000C0100F0CFF854F8303C5E65CDE7D4E90A
:101E28000A23B3F1FF3F08BFB2F1FF3F05D052EAE2
:101E38000301206803D100F0D7FA3034C6E73146F1
:101E4800183000F067FCF8E795030020BC3E000856
:101E5800BC3E0008D73700080801002008B5034831
:101E6800034A0021121A01F065FC08BD7800002021
:101E78009803002070B5002386B00122CDE9042321
:101E8800134E144D01930F22CDE902321249142347
:101E980003FB005506EBC01604464FF4C07000FB68
:101EA80004110E4B00954FF4A072304600F082F8F2
:101EB800737B0B4AEE6023F0040373734FF40463DF
:101EC80004FB033313442C746B6006B070BD00BF71
:101ED8008800002068030020000C00204537000817
:101EE800C0030020BFB50020FFF734FF294B83F360
:101EF8000888294C294F636943F4007363610025FE
:101F0800F02384F82230E57725766576A57684F87F
:101F18002050636A43F4E0236362FEF77BFDFEF71B
:101F2800A1FE4FF0FF33A362E362FEF761FFFEF705
:101F3800BDFE1B481B4C00F089F801F0CDFBFEF7F5
:101F4800B7FB0120FFF706FF0220FFF703FF00F0B1
:101F5800C3F9154B15495C61154B05930123CDE970
:101F680003534FF480623B46CDE901550095204666
:101F780000F020F8627B064622F0040220466273D5
:101F880001F0F9FB2846FFF775FF3A46314620462F
:101F9800FEF74AFE000C002000ED00E0A51D000839
:101FA800880100200801002068030020800D00201F
:101FB800244300082DE9F043073285B022F00702D8
:101FC8000E461F461099017300F158037F32C0E98D
:101FD80016330446002322F03F0204218360417334
:101FE8003F2A0F98A073C4E90633E37306F140094A
:101FF800A2F1400805D883F31188BFF36F8F084614
:1020080002DFB51829462046FEF790FB07300E9BE5
:1020180020F00700A066C4E9189802930D9B01936D
:102028002D1A0C9B00932A463B4631462046FEF764
:10203800C9FD00236365044B9B6803B1DB6EE3664F
:10204800284605B0BDE8F0836803002040F201137C
:1020580083810023C0E91833C366014B9860704739
:1020680068030020094A93686FF00A0199670849D4
:1020780058674B6843F080534B60002383F3118803
:10208800BFF36F8F9368986F704700BF6803002095
:1020980000ED00E070B590F90D20437B002A36DB97
:1020A800D90634D11B4C63F07F032246437352F8A0
:1020B800183FE169934207D1C0E900210860E06157
:1020C80011E09942F8D01B68002BF5D090F90E501A
:1020D80093F90E60B542F4D0AE42F2DD5968C0E91A
:1020E800003108605860A569954200D005B9E568D7
:1020F800A3685A7BD20604D1DA897F2A01D9AA6952
:1021080032B1AB4202D0284600F062FA656170BD78
:102118006361FCE76803002038B590F90D20437B24
:10212800002A014604DA03F07F03437301F011FB30
:102138000D4D2A46AB6852F8184F944200D004B9A6
:10214800EC688B4207D05A7BD20604D1DA897F2A01
:1021580001D9A2692AB1A34202D0204600F038FA78
:1021680023466B6138BD00BF6803002070B590F945
:102178000D20437B002A014604DA03F07F034373F2
:1021880001F0E7FA4B7B1C4C63F07F0322464B734C
:1021980052F8183FE069934207D1C1E90020016075
:1021A800E16111E09842F8D01B68002BF5D091F955
:1021B8000E5093F90E60B542F4D0AE42F2DD586885
:1021C800C1E9003001605960A569A368954200D053
:1021D80005B9E5688B4207D05A7BD20604D1DA8963
:1021E8007F2A01D9AA692AB1AB4202D0284600F059
:1021F800EFF92B46636170BD6803002049B9EFF31E
:10220800058030B9054B5A699B689A4201D0FFF79F
:1022180029BF81F31188BFF36F8F704768030020CF
:10222800034648B9EFF3058232B9064A5169926804
:10223800914201D0FFF716BF83F31188BFF36F8F68
:10224800704700BF68030020EFF31181102383F368
:102258001288BFF36F8F054B9A68D37B013BD3730A
:1022680081F31188BFF36F8F704700BF68030020A8
:1022780070B5EFF31186102383F31288BFF36F8FC5
:10228800144DAB68DA7B0132DA732A4652F8184FDC
:10229800944200D004B9EC685A7BD20604D1DA899A
:1022A8007F2A01D9A2692AB1A34202D0204600F0B0
:1022B8008FF923466B6186F31188BFF36F8FEFF3B5
:1022C8001180102383F31288BFF36F8FBDE870402D
:1022D800FFF7A6BF68030020024B03F11802C3E909
:1022E800062270476803002070B5EFF311861023AB
:1022F80083F31288BFF36F8F1B4CA168E0690B68EA
:10230800814214BF1A46002249680B605960A368CD
:10231800E1692AB9154AC3E900210B60E3610CE0C1
:1023280093F90E0092F90E50A84218D0854216DD96
:102338005168C3E900210B605360A5690B4B9D42AE
:1023480000D005B9E568A3689D4202D0284600F090
:102358003FF965613046BDE87040FFF783BE8A42A9
:10236800D8D01268D5E700BF68030020800300209A
:10237800F8B550EA010306460C4603D1FFF7B4FF4F
:102388000020F8BDEFF31187102383F31288BFF301
:102398006F8F124D124BA8681860FFF7BDFEA86832
:1023A800104923463246183000F0B4F9AA68537B26
:1023B80043F00403537304463846FFF753FEAB68F3
:1023C800D3E90A23B3F1004F08BF002AD8D101F09E
:1023D80069FA201A20EAE070D3E700BF68030020FA
:1023E80088030020D737000838B50446EFF3118575
:1023F800102383F31288BFF36F8F437B5B070FD5DE
:10240800183001F027FA637B23F004032046637336
:10241800FFF740FE29460548BDE83840FFF7EEBE05
:1024280085F31188BFF36F8F38BD00BF9603002076
:10243800014B9868704700BF680300202DE9F843F6
:102448000446077BEFF31185102383F31288BFF34B
:102458006F8F437B190705D585F31188BFF36F8FFD
:10246800BDE8F883D90943F008025AD14273A3683A
:1024780013B1204601F075F904F1180001F0EAF9EA
:10248800A66D04F15808B04511D04FF0000976B197
:10249800304601F066F906F1180001F0DBF9C6F8DC
:1024A80078903046FFF7F6FDA66DB045EFD1DFF81E
:1024B800B880D8F808309C423BD1EFF30589B9F1D0
:1024C800000918BF4FF00109D8F81860274A96424A
:1024D80000D00EB9D8F80C60B34202D0304600F0F4
:1024E80077F8C8F81460B9F1000F02D02048FFF758
:1024F800ADFDD8F808309C4231D1EFF3058373BBAA
:10250800227BD20718D42846FFF7ACFDFB07A7D5D6
:10251800002383F31188BFF36F8F0423184602DF6B
:102528009EE703F07F0343F00803437301F011F9BA
:102538009DE74FF00009C7E785F31188BFF36F8F58
:1025480083F31188BFF36F8F0423184602DFEFF37C
:102558001180102383F31288BFF36F8FD4E785F3BC
:102568001188BFF36F8FD1E7680300208003002034
:1025780088010020044BC01A044BC0105843044B78
:1025880001221A54704700BF08020020ABAAAAAA69
:1025980096030020C3897F2B12D80A4B1B6863B1AE
:1025A800094B90F90E201B689A4209DB437BDB0636
:1025B80006D1064BC31A18BF012303F00100704768
:1025C8000023FAE7400000208C0300208800002048
:1025D80070B50E4B0E4C1E7C06EB460304EBC30491
:1025E8000546204601F036F90A4B002228469A553E
:1025F800FFF7D0FF48B1084B08491A68013A20464E
:10260800D317BDE8704000F085B870BD680300209E
:102618000802002096030020400000207D250008C5
:1026280038B5EFF31185102383F31288BFF36F8F4A
:10263800104B114A9C681068A04206D1FFF7C8FFEA
:1026480085F31188BFF36F8F38BD00211B7C1160A3
:102658000A4AD35C002BF3D02046FFF79BFF0028E3
:10266800EED0637BDB0602D12046FFF77FFD2046D4
:10267800E4E700BF680300208803002096030020D9
:102688000748084A084908B5121A01F055F80748DA
:10269800074A0849BDE80840121A01F04DB800BFC2
:1026A800000000207400002068430008000000209B
:1026B8000000002068430008024B1868984208BFD1
:1026C8000020704744000020034B1B680BB9FFF73C
:1026D80053BA0020704700BF9003002030B570B196
:1026E8000B4B5B6898420AD0036843B1D3E90421D5
:1026F800D0E90445121941EB0501C3E90421D0E9E9
:10270800003213605A600023C0E9003330BD00BFB7
:1027180044000020B3F1FF3F08BFB2F1FF3F2DE9AD
:10272800F84F0446994615461F467AD08160EFF364
:102738001188102383F31288BFF36F8FB9F1000F4C
:10274800DFF8E4A020DBFFF7BFFFDAE90027013557
:1027580049F100092D1849EBE073C4E90453AD1899
:10276800064643EB07074FF00109FFF7A5FFDFF81F
:10277800BCE0DEF804A00346EBB9C4E900EACAF8F5
:102788000040CEF8044028E0DAE900126FF00103B7
:102798005B1A4FF0FF3161EB02025B1B62EB09022F
:1027A800012B72F10001BCBF01230022C0E90432F1
:1027B8004FF00009D9E7D3E9041CD4E904208A4280
:1027C80070EB0C0B24DA891A5A686CEB0000C3E929
:1027D8000410C4E9003214605C60FFF76DFF8442A6
:1027E8000ED1134B1B685BB9B9F1000F02D1FFF78B
:1027F8006BFF0646304601F016F80021FFF740F956
:1028080088F31188BFF36F8F28463946BDE8F88FE3
:10281800521A60EB0C009A45C4E90420ADD01B683D
:10282800AAE700252F46EFE72002002044000020F9
:10283800900300202DE9F047EFF31185102383F36F
:102848001288BFF36F8FDFF8A490DFF8A480C9F86F
:102858000000FFF731FF00260027D9F80030D8E93B
:1028680000ECD91750B1D0E90442A34271EB020A37
:102878001CDAE41A62EB0102C0E9044213EB0E030E
:102888004FF000044CEB01012046C8E90031C9F8BB
:10289800004000F0C8FF2146FFF7F2F885F31188E1
:1028A800BFF36F8FBDE8F047FFF7BABE14EB0E0217
:1028B8004CEBE473C0E90467C8E90023FFF70EFF97
:1028C80085F31188BFF36F8F83689847EFF31185FD
:1028D800102383F31288BFF36F8FD9F800301B1BC6
:1028E800C9F80030FFF7E8FEB7E700BF9003002003
:1028F8002002002010B5EFF31184102383F312880F
:10290800BFF36F8FFFF7E0FE054A0346D2E90001E7
:10291800181841EBE37184F31188BFF36F8F10BD72
:1029280020020020014800F0E0BA00BF2943000857
:102938002DE9F04F8DB043680293837815469A07C6
:10294800804640F10D8100240E78002E00F00A81A7
:10295800252E0BD04B1C03930134029B4146304675
:1029680098470028C0F2F6800399EDE74E788B1C53
:10297800252E0393F0D00027B946BB46BBF11F0FA5
:1029880038D8A6F12003102B0AD8DFE803F02A096B
:1029980009300909092109090928092D09091F0010
:1029A800A6F13003092B33D92A2E37D11BF0400F5B
:1029B80055F8043B40F08280002BA7BF4BF0200B5A
:1029C8009946C3F100094BF0280B01E04BF0010BCD
:1029D800039B13F8016B0393002ECFD130E04BF02B
:1029E800020B4BF0040BF3E74BF0080BF0E74BF04E
:1029F800100BEDE7BBF17F0F19D8A6F13003092BB7
:102A0800D2D81BF0400F03D00A2101FB0737DFE7BC
:102A18000A2101FB09394BF0200BD9E72E2E06D1EC
:102A28001BF0400F40F09E804BF0400BD0E76C2E1F
:102A380031D02BD8682E36D06A2E3CD04C2E3AD0C6
:102A4800002F46F02003B8BF2BF04002A3F1650128
:102A5800BCBF1FFA82FB0027022901D9612B2FD1A5
:102A6800073525F00705DFF8ACA2083507271BF066
:102A7800080F66D00AEB070B56465E4563D1A4EBF8
:102A88000A0A06EB0A02A9EB07096FE1742E9FD028
:102A98007A2E9DD0D4E71BF0800F18BF4BF4007B33
:102AA8004BF0800B94E71BF4807F18BF4BF4007B3E
:102AB8004BF4807B8CE74BF4207B89E71F4687E744
:102AC800A6F16301122900F2F080DFE811F013008B
:102AD8004F00EE00EE00EE00EE004F00EE00EE00BC
:102AE800EE00EE00EE00FE00E900EE00EE001B0036
:102AF800EE00AF0055F8043B8DF8183001270DF1B2
:102B0800180AB4E755F804AB834BBAF1000F08BFB5
:102B18009A461BF0400F14BF39464FF0FF3150461C
:102B280000F0DAFE0746A2E7029B414620209847BC
:102B380000280FDB013EB742F6D34C44A41BB14634
:102B480098E74E46F7E716F8010B029B414698476F
:102B5800002892DA98F8023043F0040388F802302B
:102B68004FF0FF3420460DB0BDE8F08F1BF0800F0A
:102B780034D01BF4007F2CD0073525F00705AA4672
:102B880069685AF8080B2BF010050029ADB237DA3E
:102B9800404261EB410145F480650DF1180B0A23B1
:102BA8005A4600F0A5FEA0EB0B0301936B0662D515
:102BB800019B25F001019F4289B240F3A180002EBC
:102BC80000F0998015F0100240F09C80BB460D463D
:102BD80023E0AA465AF8040BC117D4E7AA461BF407
:102BE800807F5AF8041B01D10846F5E71BF4007FE3
:102BF80015BF48B208B241F3C01141F3C031C2E772
:102C080050EA0103C9D11BF0400FC6D0002FC4D130
:102C18002BF0110295B2BB46019740F2064115EA26
:102C280001021CBF0BF1010B00222CE02BF010025B
:102C38001FFA82FB0A231BF0800C49D01BF4007199
:102C48001DBF073525F00705AA46AA461ABF5AF838
:102C5800080B69685AF8040B50EA010545D12BF0B6
:102C680016051BF0400FADB242D0002F40D12BF01B
:102C7800170295B2019715F0100248D0019B002E5B
:102C880042D103F1010B29075AD4EB0706D5D945E0
:102C98006FDD0199A9EB0B035F18CB465B4649E052
:102CA8004BF0100B10237826C5E7782B04D1C6F11A
:102CB800780343F01003BEE7029B4146252098475E
:102CC8000028FFF647AF023447E608230026B2E79C
:102CD800AA461BF480715AF8040BBDD01BF400718E
:102CE8001ABFC0B2614680B2B6E72BF0060295B2B1
:102CF8000DF1180B54E725F01105ADB2BB468CE772
:102D08000D46B8E73B460D4603F1020BBBE7DDF87D
:102D180004B082E75E43000857430008CDE9043257
:102D28004146029B202098470028FFF613AF049BDA
:102D3800059A01339945F1DCA4EB0B01CC189B46AD
:102D48000AB3029B4146302098470028FFF602AF9D
:102D58008EB901342744019B391B994224DC1D4656
:102D68005DBB019AA9EB0B092244554614469144D0
:102D780035E0019F92E7023441463046029B98476E
:102D88000028E7DAE6E640F206410D42E2D015F007
:102D9800020F14BF2B20202015F4806F04F10104CA
:102DA800414618BF2D20E9E7029B4146302098474D
:102DB800002804F10104CEDACCE606AB013D414619
:102DC800585D029B98470028CADAC3E6029B414631
:102DD80020209847002804F10104FFF6BBAEA9EBB8
:102DE8000403002BF2DCBFE5704770B403460C46C1
:102DF800DA88006819792243056986682B680124F6
:102E08008C4012F0010F14BF2343A3432B60336897
:102E180070BC184700EBC100408840087047F8B5FF
:102E28000346FFF7F7FFB0FA80F0C0F11F0003EB8D
:102E3800800CCA00DCF81060171D0C4606328DB2F3
:102E480056B9012101FA00F0D9680143D960CCF8DC
:102E58001040DD539D52F8BDF1000431585AD85343
:102E680003EBC0009E52C5805D52F4E7043A2DE999
:102E7800F041CC1D114424F0070421F007010E1B7A
:102E8800F708B7FA87F2C2F12405AD004FF0000841
:102E98000735C2F12002ED0804604146A760C4F876
:102EA8000C80920004F1100000F00EFD6B0043F05E
:102EB8000103638004EBC5027B1B5900A4F8008062
:102EC8005180A21924F83550A2F80280A35304EBCC
:102ED800C70329465A8842F001025A802046BDE8B5
:102EE800F041FFF79CBF002070470FB407B504A955
:102EF80051F8040B0191FDF79FFB03B05DF804EB5B
:102F080004B070477047012801D1EFF30583FEF73D
:102F180009BF01460068FFF7F6BF08B5FDF702FCD8
:102F2800BDE80840FDF722BC00210120FFF7EBBFF8
:102F380061B662B680F31188BFF36F8F704772B6BF
:102F4800002383F31188BFF36F8FBFF34F8F30BF18
:102F580062B6BFF36F8F7047202809D9B0F1004FD0
:102F680008D80138B0FA80F0C0F11F00400070475F
:102F7800082070473E20704708B5FDF7EDFF002098
:102F880008BD01208840704700F003020432920017
:102F98000F23934043EA900010B500F003039B0011
:102FA80003F1804303F58033020C9C6892FAA2F285
:102FB800B2FA82F202F01F0224EA10409140014363
:102FC800996010BD0B88C3F30B0303F6B872C2F304
:102FD8000B02182A82B014D803F1804303F5043396
:102FE80048681A6802431A600B88C3F30B0303F19D
:102FF800804303F5043300201B680193019B02B052
:1030080070476FF08500FAE70B88C3F30B0303F6EC
:10301800B872C2F30B02182A9FBF03F1804303F56D
:10302800043349681A689DBF8A4300201A606FF00C
:10303800850070470B2809D840F66A73C34013F01F
:10304800010F14BF00206FF0850070476FF08500F6
:10305800704710B50888C0F30B00FFF7EBFF002896
:103068001FDB4A68FF2A1BD093B203F1804303F5A4
:103078000433C2F384541868C2F3054204FA02F216
:1030880020EA02021A6049688BB203F1804303F513
:103098000433CA0E1868C1F305418A4002431A6016
:1030A800002010BD0888C0F30B0008B500F6B873FF
:1030B800C3F30B03182B0AD800F1804000F5043045
:1030C8004B680268934314BF0120022008BDFFF734
:1030D800B1FF002814BF01200220F7E770474368BA
:1030E8005B681B690B600020704743685B68586920
:1030F80042400A4042405A610020704743685B687A
:1031080000209961704743685B68002099627047A6
:1031180043685A6853694B4053610020704710B5A3
:1031280003699868F8B1884219D1DC680868986022
:10313800A14200D1D860002008602AB19A680A60CC
:10314800DA68996002B9D960002010E0814206D19E
:1031580008682060D8688142EDD1DC60EBE704465E
:1031680000680028F2D1002AE8D16FF0150010BDE0
:10317800F0B544680120676888401E46C2F3801392
:1031880027EA00078B403B43636090FAA0F7B7FA41
:1031980087F7D4F808C04FF0030E7F000EFA07F740
:1031A8002CEA070C90FAA0F7B7FA87F7C2F3C11315
:1031B8007F00BB4043EA0C03A36090FAA0F3B3FA84
:1031C80083F3E7685B000EFA03F327EA030790FA34
:1031D800A0F3B3FA83F302F030055B00C2F3412297
:1031E8009A403A43202DE26016D107292BD890FA4D
:1031F800A0F3226A2BB3B3FA83F39B000F2101FAE1
:1032080003F322EA030290FAA0F3B3FA83F39B00D4
:1032180006FA03F31343236290FAA0F3B3FA83F395
:10322800226890FAA0F05B000321B0FA80F02D0923
:1032380001FA03F3400022EA030385401D43256099
:10324800F0BD2B46D9E7030A616A93FAA3F282B16B
:10325800B2FA82F292000F2793FAA3F3B3FA83F338
:1032680007FA02F29B0021EA02029E4016436662B8
:10327800D2E72A46EEE712F4003CF8B50C461346AE
:103288001DD0960714D555075CD55022D90611D5FF
:1032980042F4007203F4C061B1F5806F42D0B1F519
:1032A800C06F19D0B1F5007F18D142F0800215E047
:1032B8001022EBE79F06EDD542F48062EAE7D603D9
:1032C80005D5D50605D4C2F340129202E2E73022B2
:1032D800E0E74FF40072DDE742F4C07213F44036C1
:1032E800056908D02F6927FA04F1C9075FBF0121D2
:1032F800A14039432961BCF1000F06D01F03416882
:1033080013D549680123A3408B61406800232146F7
:10331800FFF72EFF26B92B6923FA04F2D2070BD444
:103328000020F8BD42F48072D8E75F0341BF012353
:103338004968A3408B62E8E70122A24023EA02031E
:103348002B61EDE76FF08500EBE770B50B468968F8
:10335800054611B15E680C6801B970BD8A682A40DB
:1033680002D04B68304698471CB1236821461C465A
:10337800F2E72346FAE7F8B51F46044640680E46CA
:103388001546FFF7F5FE112F08D1012303FA06F6BB
:1033980063685B682A054CBF9E619E620020F8BD89
:1033A80030B5036813600579046804EBC504A342CB
:1033B80002D36FF0010030BD5C798C4201D0083334
:1033C800F0E70020F7E74368C1F34B101B6801F0F2
:1033D8001F01C05801238B40034214BF012300235F
:1033E80013700020704710B54368C1F34B101A687A
:1033F80001F01F01845801238B4023438350002090
:1034080010BD10B54368C1F34B14186801F01F01D3
:10341800235801228A4023EA02032350002010BDCA
:1034280038B504460D46FFF7DEFF29462046FFF76C
:10343800E8FF002038BDB0F5805F07D0B0F1805FAD
:1034480009D1002914BF012002207047002914BFA8
:10345800032004207047002914BF0220032070476E
:1034680043681B68D869DA69D107DA69C0F3C00014
:1034780048BF40F002009207DA6948BF40F00400F4
:103488005107DA6948BF40F02000D20542BF4FF427
:10349800807240F008001A62C10744BF08221A620D
:1034A800820744BF01221A62410744BF02221A62FE
:1034B800820644BF04221A62704710B543681B682D
:1034C8001020DA691206FCD5EFF3118280F3128816
:1034D800BFF36F8FDC69240604D482F31188BFF32D
:1034E8006F8FEEE7996282F31188BFF36F8F10BD7B
:1034F80043681B68DA69100744BF08221A62DA6950
:10350800920643BF5B6A0B7000204FF0FF30704794
:1035180010B50269526812680A6042681268126837
:1035280002F4C062B2F5806F04460B4633D0A2F5B0
:10353800C060424242411A7162681268526802F4DD
:103548004052B2F5805F28D0B2F5405F27D0002AFC
:103558000CBF012203225A71626812681068116850
:1035680000F0102001F4C061FFF765FF98716268F0
:103578001268926802F44072A2F540714A424A41C8
:10358800DA7161680968896811F4804F18BF0322ED
:10359800DA71002010BD0222CDE70022DBE702220B
:1035A800D9E72DE9F0410A790369D0F804805E680B
:1035B800012A04460D4611D0901E47424741BF02DA
:1035C80069794046FEF72EF8AB79022B09D0042B17
:1035D80031D0131E18BF01231B0306E04FF4C06748
:1035E800EEE7B2FA82F35B091B07EA79D8F8001014
:1035F800012A14BF4FF0000C4FF4407CAE421DD19D
:103608000A6822F0805222F4B0523A431A430A6000
:103618004B6823F4405303434B6063681A6893680C
:1036280023F4407343EA0C03936031682046BDE8F5
:10363800F041FEF72BB84FF48053D6E7D1F800E0FD
:103648000EF4C06E77451FBFD1F800E02EF4C06EAF
:103658004EEA07070F6061680F68796801F4405106
:1036680088421FBF796821F440510143796061683D
:103678000868016801F010218B421FBF016821F022
:1036880010210B430360636819688B6803F4407367
:103698009C451FBF8B6823F4407343EA0C038B607F
:1036A80063681B689968490405D5032A09D09A6894
:1036B80022F4804204E0032A03D19A6842F480424B
:1036C8009A6029683368994204D02046FDF7DEFFE6
:1036D8002B683360BDE8F081704740B1C368587803
:1036E80010F001001EBF1878B0FA80F0400970474A
:1036F800EFF31183102383F31288BFF36F8FFEE774
:1037080008B5FFF7F5FF10B54369044633B9002043
:10371800E268537843F00103537010BD98470028BE
:10372800F5D00028B8BF4042E368FF28A8BFFF20B3
:103738001870EDE700F0C8B800F0B8B808B5102464
:10374800EFF3118384F31288BFF36F8FFFF7F7FB52
:10375800F6E7D0E9003213605A600023C0E900336D
:10376800704708B5FFF7F5FF437B23F00203437367
:103778000023836008BD10B5EFF31184102383F391
:103788001288BFF36F8FFEF785FC84F31188BFF3AF
:103798006F8F10BD10B50146EFF31184102383F32A
:1037A8001288BFF36F8F437B13F0280F0AD1836809
:1037B8000BB1FFF7D6FF4B7B23F004034B7308468E
:1037C800FEF768FC84F31188BFF36F8F10BD0121E9
:1037D8001838FFF7DFBF38B504460D46FEF7C8FDB9
:1037E800B5F1FF3F08BFB4F1FF3F0346204614D0B0
:1037F80013F109004FEAE37141F100010A2871F160
:1038080000030BD36FF00A0383424FF004038B418C
:1038180006D30A220023FCF7DBFC38BD0020FCE7B6
:103828006FF00040F9E708B50246FEF745FF70B1B2
:10383800D0E904319B1A61EBE272B3F1004F72F1E7
:10384800000104DA002AACBF1846002008BD6FF05A
:103858000040FBE738B50246EFF31185102383F3E8
:103868001288BFF36F8F0368CBB1FEF725FF0446BC
:103878001046FEF733FF00224FF000438442C0E9B0
:10388800042306D1FEF720FFFFF7CDFF0021FEF746
:10389800F7F8002085F31188BFF36F8F38BD6FF0FC
:1038A8001500F7E708B5FFF725F808BD0A44914267
:1038B80000F1FF3300D1704710B511F8014B03F840
:1038C800014F9142F9D110BD02440346934200D101
:1038D800704703F8011BF9E710B5024601448A4214
:1038E800134603D01C780132002CF8D1181A10BDE9
:1038F800F0B5C3F137070446FFB203F01F031046C3
:10390800082BE6B233D0102B3ED06508A40844EA51
:10391800817445EAC1752D194FEA910242EB5102B3
:10392800290941EA02716D1842EB1212290A41EA8B
:1039380002616D1842EB1222290C41EA02416D180E
:1039480042EB1242AD1842F10002EC0844EA42741C
:10395800D10804EB8402A6EB4205EDB2092D0CD97F
:103968000134A5F10A0541F10001EDB212E0E408C5
:1039780044EA417406F00705C908303554EA0102E3
:1039880000F8015BBCD1F0BD240944EA017406F0DB
:103998000F050909092D84BFED19EDB2EDE7000007
:0C39A80001480068704700003402002055
:0839B40058C8FF7F010000006C
:1039BC00FC3900087C3B00081C3A0008DC3A000883
:1039CC001C3B00083C3A0008FC3A0008BC3A0008D2
:1039DC009C3A00087C3A00085C3A00083C3B000822
:1039EC005C3B0008843B0008803B0008883B0008D7
:1039FC007442000800000000F03E00085E00002049
:103A0C0000000000C11200080000000000000000CF
:103A1C00E342000824400008E03E00086E0000204D
:103A2C00000000000000000000000000000000008A
:103A3C005642000800000000000000005C0000205E
:103A4C0054020020111000080000000000000000CB
:103A5C0081420008543F0008BC3E00086000002072
:103A6C00D4020020711500080000000000000000C6
:103A7C008F420008683F0008BC3E0008620000202E
:103A8C00E802002071150008000000000000000092
:103A9C009D4200087C3F0008BC3E000864000020EA
:103AAC00FC0200207115000800000000000000005E
:103ABC00AB420008903F0008BC3E000866000020A6
:103ACC001003002071150008000000000000000029
:103ADC00B9420008A43F0008BC3E00086800002062
:103AEC0024030020711500080000000000000000F5
:103AFC00C7420008B83F0008BC3E00086A0000201E
:103B0C0038030020711500080000000000000000C0
:103B1C00D5420008CC3F0008BC3E00086C000020D9
:103B2C004C0300207115000800000000000000008C
:103B3C00F4420008284000080C3F000870000020E8
:103B4C001C000020451800080000000000000000C8
:103B5C0004430008744000080C3F00087200002069
:103B6C002C00002045180008000000000000000098
:103B7C00A5060008F119000871140008890F000847
:103B8C0000000000312F000800000000312F000859
:103B9C0000000000312F000800000000312F000849
:103BAC0000000000312F000800000000312F000839
:103BBC0054420008AD0F000852420008AD0F000837
:103BCC0050420008AD0F00084E420008AD0F00082F
:103BDC004C420008AD0F000800000000312F000817
:103BEC0000000000312F000800000000312F0008F9
:103BFC0000000000312F000800000000312F0008E9
:103C0C0000000000312F000800000000312F0008D8
:103C1C0000000000312F000800000000312F0008C8
:103C2C0000000000312F000800000000312F0008B8
:103C3C0000000000312F00084A420008AD0F0008B8
:103C4C0000000000312F000800000000312F000898
:103C5C0000000000312F000800000000312F000888
:103C6C0000000000312F000800000000312F000878
:103C7C0000000000312F000800000000312F000868
:103C8C0000000000312F000800000000312F000858
:103C9C0000000000312F000800000000312F000848
:103CAC0000000000312F000800000000312F000838
:103CBC0000000000312F000800000000312F000828
:103CCC0048420008AD0F000800000000312F00082A
:103CDC0000000000312F000800000000312F000808
:103CEC0000000000312F000800000000312F0008F8
:103CFC0000000000312F000800000000312F0008E8
:103D0C0000000000312F000800000000312F0008D7
:103D1C0000000000312F000800000000312F0008C7
:103D2C0000000000312F000800000000312F0008B7
:103D3C0000000000312F000800000000312F0008A7
:103D4C0000000000312F000800000000312F000897
:103D5C0000000000312F000800000000312F000887
:103D6C0000000000312F000800000000312F000877
:103D7C0000000000312F000800000000312F000867
:103D8C0000000000312F000800000000312F000857
:103D9C0000000000312F000800000000312F000847
:103DAC0000000000312F000800000000312F000837
:103DBC0000000000312F000800000000312F000827
:103DCC0000000000312F000800000000312F000817
:103DDC0000000000312F000800000000312F000807
:103DEC0000000000312F000800000000312F0008F7
:103DFC0000000000312F000800000000312F0008E7
:103E0C0000000000312F000800000000312F0008D6
:103E1C0000000000312F000800000000312F0008C6
:103E2C0000000000312F000800000000312F0008B6
:103E3C0000000000312F000800000000312F0008A6
:103E4C0000000000312F000800000000312F000896
:103E5C0000000000312F000800000000312F000886
:103E6C0000000000312F000800000000312F000876
:103E7C0000000000312F000800000000312F000866
:103E8C0000000000312F000800000000312F000856
:103E9C0000000000312F000800000000312F000846
:103EAC0000000000312F000800000000312F000836
:103EBC007F320008E7300008F330000805310008B5
:103ECC000F31000819310008C1140008273100080F
:043EDC0000000000E2
:103EE000CF330008EF3300080B34000829340008F2
:103EF000CD2F00081130000800000000ED1100086F
:0C3F0000AD300008000000005B3000083D
:103F0C00F9340008C3340008693400084517000868
:043F1C00193500084B
:103F2000DC3A00080D000100000000200000000045
:103F300000000B06020000003C3F000800000008E3
:103F40003942000824000206000000204142000817
:103F500020000B11FFFF00000018004806000000C1
:103F60004C00000040000000FFFF0000001400486B
:103F7000050000004C00000020000000FFFF0000D2
:103F800000100048040000004C0000001000000079
:103F9000FFFF0000000C0048030000004C00000080
:103FA00008000000FFFF00000008004802000000B9
:103FB0004C00000004000000FFFF00000004004867
:103FC000010000004C00000002000000FFFF0000A4
:103FD00000000048000000004C000000010000004C
:103FE0001C3B0008FC3A0008DC3A0008BC3A000818
:103FF0009C3A00087C3A00085C3A00080000000087
:1040000000000000000000000000000000000000B0
:1040100000000000000000000000000000000000A0
:104020000000000000100240008000401C3A000820
:10403000800700004C400008010000000000000064
:104040000000000000000000544000085C00000078
:10405000010000005C40000801000000644000080E
:10406000020000004C000000000200006C00000094
:1040700000000000003801401C3A00080E08000053
:10408000984000080100000000000000000000004F
:1040900000000000A0400008600000000040000098
:1040A000A840000801000000B04000080200000025
:1040B0008704000000020000A704000000000000C8
:1040C000BC390008BC390008F4390008F839000888
:1040D000FC390008FC390008010002000400060059
:1040E00008000A000C0010002000400080000001C1
:1040F000427574746F6E20707265737365642061AD
:10410000742025750A004572726F723A20627574C8
:10411000746F6E206465766963652025732069730A
:10412000206E6F742072656164790A004572726F47
:10413000722025643A206661696C656420746F2082
:10414000636F6E6669677572652025732070696E8E
:104150002025640A004572726F722025643A206639
:1041600061696C656420746F20636F6E6669677542
:10417000726520696E74657272757074206F6E203E
:1041800025732070696E2025640A005365742075BC
:104190007020627574746F6E2061742025732070B6
:1041A000696E2025640A004572726F722025643A98
:1041B000204C454420646576696365202573206939
:1041C00073206E6F742072656164793B2069676E3D
:1041D0006F72696E672069740A004572726F72208F
:1041E00025643A206661696C656420746F20636F92
:1041F0006E666967757265204C4544206465766912
:1042000063652025732070696E2025640A0053655C
:1042100074207570204C45442061742025732070F3
:10422000696E2025640A0050726573732074686596
:1042300020627574746F6E0A00464C4153485F30BB
:10424000005352414D5F30000A0605050401030189
:10425000020101010001696E746572727570742D3E
:10426000636F6E74726F6C6C6572403430303130D5
:1042700034303000726363403430303231303030AB
:10428000006770696F403438303031383030006743
:1042900070696F40343830303134303000677069C5
:1042A0006F403438303031303030006770696F40E3
:1042B0003438303030633030006770696F403438E4
:1042C000303030383030006770696F40343830300B
:1042D00030343030006770696F40343830303030FF
:1042E00030300072657365742D636F6E74726F6C1D
:1042F0006C65720073657269616C403430303038BF
:104300003030300073657269616C40343030313365
:1043100038303000000000000000000001020304FB
:10432000060708096D61696E002A2A2A20426F6F0C
:1043300074696E67205A6570687972204F532062E5
:1043400075696C64206333613334336333373936D2
:1043500039202A2A2A0A00286E756C6C29002A66E0
:084360006C6F61742A0000007B
:104368001C3B000805000000EF2E000800000000BC
:10437800812F00080000000000000000000000007D
:104388002400002000C2010000010300000000001A
:104398003400002000C20100000103000024F400E2
:1043A800C80000004400002044000020FFFFFFFF79
:0C43B800FFFFFFFFFFFFFFFFFFFFFFFF05
:1043C40000000000000000000000000000000000E9
:0843D4000000000000000000E1
:0443DC0015E015E0F3
:0400000508000A499C
:00000001FF
